S0150000545241464649435F4C494748542E7372656339
S113000009C00EC00DC00CC00BC00AC009C008C096
S113001007C006C011241FBECFE9CDBF2BD02FC00F
S1130020EFCF87B3856187BB0895C09A2FEB87E232
S113003099E0215080409040E1F700C0000088B36F
S113004018BAC29A2FEB87E299E021508040904081
S1130050E1F700C0000088B318BAC49A2FE986E813
S113006091E0215080409040E1F700C0000088B347
S113007018BA0895F894D5DF7894D7DFFECFF894B2
S1050080FFCFAC
S9030000FC
